{
  "_format": "hh-sol-artifact-1",
  "contractName": "nftContract",
  "sourceName": "contracts/NFTContract.sol",
  "abi": [
    {
      "inputs": [],
      "stateMutability": "nonpayable",
      "type": "constructor"
    },
    {
      "anonymous": false,
      "inputs": [
        {
          "indexed": true,
          "internalType": "address",
          "name": "account",
          "type": "address"
        },
        {
          "indexed": true,
          "internalType": "address",
          "name": "operator",
          "type": "address"
        },
        {
          "indexed": false,
          "internalType": "bool",
          "name": "approved",
          "type": "bool"
        }
      ],
      "name": "ApprovalForAll",
      "type": "event"
    },
    {
      "anonymous": false,
      "inputs": [
        {
          "indexed": true,
          "internalType": "address",
          "name": "previousOwner",
          "type": "address"
        },
        {
          "indexed": true,
          "internalType": "address",
          "name": "newOwner",
          "type": "address"
        }
      ],
      "name": "OwnershipTransferred",
      "type": "event"
    },
    {
      "anonymous": false,
      "inputs": [
        {
          "indexed": true,
          "internalType": "address",
          "name": "operator",
          "type": "address"
        },
        {
          "indexed": true,
          "internalType": "address",
          "name": "from",
          "type": "address"
        },
        {
          "indexed": true,
          "internalType": "address",
          "name": "to",
          "type": "address"
        },
        {
          "indexed": false,
          "internalType": "uint256[]",
          "name": "ids",
          "type": "uint256[]"
        },
        {
          "indexed": false,
          "internalType": "uint256[]",
          "name": "values",
          "type": "uint256[]"
        }
      ],
      "name": "TransferBatch",
      "type": "event"
    },
    {
      "anonymous": false,
      "inputs": [
        {
          "indexed": true,
          "internalType": "address",
          "name": "operator",
          "type": "address"
        },
        {
          "indexed": true,
          "internalType": "address",
          "name": "from",
          "type": "address"
        },
        {
          "indexed": true,
          "internalType": "address",
          "name": "to",
          "type": "address"
        },
        {
          "indexed": false,
          "internalType": "uint256",
          "name": "id",
          "type": "uint256"
        },
        {
          "indexed": false,
          "internalType": "uint256",
          "name": "value",
          "type": "uint256"
        }
      ],
      "name": "TransferSingle",
      "type": "event"
    },
    {
      "anonymous": false,
      "inputs": [
        {
          "indexed": false,
          "internalType": "string",
          "name": "value",
          "type": "string"
        },
        {
          "indexed": true,
          "internalType": "uint256",
          "name": "id",
          "type": "uint256"
        }
      ],
      "name": "URI",
      "type": "event"
    },
    {
      "inputs": [
        {
          "internalType": "address",
          "name": "account",
          "type": "address"
        },
        {
          "internalType": "uint256",
          "name": "id",
          "type": "uint256"
        }
      ],
      "name": "balanceOf",
      "outputs": [
        {
          "internalType": "uint256",
          "name": "",
          "type": "uint256"
        }
      ],
      "stateMutability": "view",
      "type": "function"
    },
    {
      "inputs": [
        {
          "internalType": "address[]",
          "name": "accounts",
          "type": "address[]"
        },
        {
          "internalType": "uint256[]",
          "name": "ids",
          "type": "uint256[]"
        }
      ],
      "name": "balanceOfBatch",
      "outputs": [
        {
          "internalType": "uint256[]",
          "name": "",
          "type": "uint256[]"
        }
      ],
      "stateMutability": "view",
      "type": "function"
    },
    {
      "inputs": [
        {
          "internalType": "address",
          "name": "account",
          "type": "address"
        },
        {
          "internalType": "address",
          "name": "operator",
          "type": "address"
        }
      ],
      "name": "isApprovedForAll",
      "outputs": [
        {
          "internalType": "bool",
          "name": "",
          "type": "bool"
        }
      ],
      "stateMutability": "view",
      "type": "function"
    },
    {
      "inputs": [],
      "name": "mint",
      "outputs": [],
      "stateMutability": "payable",
      "type": "function"
    },
    {
      "inputs": [],
      "name": "newtrack",
      "outputs": [
        {
          "internalType": "uint256",
          "name": "",
          "type": "uint256"
        }
      ],
      "stateMutability": "view",
      "type": "function"
    },
    {
      "inputs": [],
      "name": "owner",
      "outputs": [
        {
          "internalType": "address",
          "name": "",
          "type": "address"
        }
      ],
      "stateMutability": "view",
      "type": "function"
    },
    {
      "inputs": [],
      "name": "renounceOwnership",
      "outputs": [],
      "stateMutability": "nonpayable",
      "type": "function"
    },
    {
      "inputs": [
        {
          "internalType": "address",
          "name": "from",
          "type": "address"
        },
        {
          "internalType": "address",
          "name": "to",
          "type": "address"
        },
        {
          "internalType": "uint256[]",
          "name": "ids",
          "type": "uint256[]"
        },
        {
          "internalType": "uint256[]",
          "name": "amounts",
          "type": "uint256[]"
        },
        {
          "internalType": "bytes",
          "name": "data",
          "type": "bytes"
        }
      ],
      "name": "safeBatchTransferFrom",
      "outputs": [],
      "stateMutability": "nonpayable",
      "type": "function"
    },
    {
      "inputs": [
        {
          "internalType": "address",
          "name": "from",
          "type": "address"
        },
        {
          "internalType": "address",
          "name": "to",
          "type": "address"
        },
        {
          "internalType": "uint256",
          "name": "id",
          "type": "uint256"
        },
        {
          "internalType": "uint256",
          "name": "amount",
          "type": "uint256"
        },
        {
          "internalType": "bytes",
          "name": "data",
          "type": "bytes"
        }
      ],
      "name": "safeTransferFrom",
      "outputs": [],
      "stateMutability": "nonpayable",
      "type": "function"
    },
    {
      "inputs": [
        {
          "internalType": "address",
          "name": "operator",
          "type": "address"
        },
        {
          "internalType": "bool",
          "name": "approved",
          "type": "bool"
        }
      ],
      "name": "setApprovalForAll",
      "outputs": [],
      "stateMutability": "nonpayable",
      "type": "function"
    },
    {
      "inputs": [
        {
          "internalType": "string",
          "name": "newuri",
          "type": "string"
        }
      ],
      "name": "setURI",
      "outputs": [],
      "stateMutability": "nonpayable",
      "type": "function"
    },
    {
      "inputs": [
        {
          "internalType": "bytes4",
          "name": "interfaceId",
          "type": "bytes4"
        }
      ],
      "name": "supportsInterface",
      "outputs": [
        {
          "internalType": "bool",
          "name": "",
          "type": "bool"
        }
      ],
      "stateMutability": "view",
      "type": "function"
    },
    {
      "inputs": [
        {
          "internalType": "address",
          "name": "newOwner",
          "type": "address"
        }
      ],
      "name": "transferOwnership",
      "outputs": [],
      "stateMutability": "nonpayable",
      "type": "function"
    },
    {
      "inputs": [
        {
          "internalType": "uint256",
          "name": "_tokenid",
          "type": "uint256"
        }
      ],
      "name": "uri",
      "outputs": [
        {
          "internalType": "string",
          "name": "",
          "type": "string"
        }
      ],
      "stateMutability": "pure",
      "type": "function"
    }
  ],
  "bytecode": "0x60806040523480156200001157600080fd5b506040518060800160405280605b815260200162001c45605b9139620000378162000049565b50620000433362000062565b62000196565b80516200005e906002906020840190620000b4565b5050565b600380546001600160a01b038381166001600160a01b0319831681179093556040519116919082907f8be0079c531659141344cd1fd0a4f28419497f9722a3daafe3b4186f6b6457e090600090a35050565b828054620000c2906200015a565b90600052602060002090601f016020900481019282620000e6576000855562000131565b82601f106200010157805160ff191683800117855562000131565b8280016001018555821562000131579182015b828111156200013157825182559160200191906001019062000114565b506200013f92915062000143565b5090565b5b808211156200013f576000815560010162000144565b600181811c908216806200016f57607f821691505b6020821081036200019057634e487b7160e01b600052602260045260246000fd5b50919050565b611a9f80620001a66000396000f3fe6080604052600436106100dc5760003560e01c806362fa332f1161007f578063a22cb46511610059578063a22cb4651461023a578063e985e9c51461025a578063f242432a146102a3578063f2fde38b146102c357600080fd5b806362fa332f146101e8578063715018a6146101fd5780638da5cb5b1461021257600080fd5b80630e89341c116100bb5780630e89341c146101665780631249c58b146101935780632eb2c2d61461019b5780634e1273f4146101bb57600080fd5b8062fdd58e146100e157806301ffc9a71461011457806302fe530514610144575b600080fd5b3480156100ed57600080fd5b506101016100fc36600461110c565b6102e3565b6040519081526020015b60405180910390f35b34801561012057600080fd5b5061013461012f36600461114c565b61037a565b604051901515815260200161010b565b34801561015057600080fd5b5061016461015f366004611211565b6103cc565b005b34801561017257600080fd5b5061018661018136600461125a565b610402565b60405161010b91906112cf565b610164610433565b3480156101a757600080fd5b506101646101b6366004611397565b61046a565b3480156101c757600080fd5b506101db6101d6366004611441565b610501565b60405161010b9190611547565b3480156101f457600080fd5b50610101600181565b34801561020957600080fd5b5061016461062b565b34801561021e57600080fd5b506003546040516001600160a01b03909116815260200161010b565b34801561024657600080fd5b5061016461025536600461155a565b61065f565b34801561026657600080fd5b50610134610275366004611596565b6001600160a01b03918216600090815260016020908152604080832093909416825291909152205460ff1690565b3480156102af57600080fd5b506101646102be3660046115c9565b61066e565b3480156102cf57600080fd5b506101646102de36600461162e565b6106f5565b60006001600160a01b0383166103545760405162461bcd60e51b815260206004820152602b60248201527f455243313135353a2062616c616e636520717565727920666f7220746865207a60448201526a65726f206164647265737360a81b60648201526084015b60405180910390fd5b506000908152602081815260408083206001600160a01b03949094168352929052205490565b60006001600160e01b03198216636cdb3d1360e11b14806103ab57506001600160e01b031982166303a24d0760e21b145b806103c657506301ffc9a760e01b6001600160e01b03198316145b92915050565b6003546001600160a01b031633146103f65760405162461bcd60e51b815260040161034b90611649565b6103ff8161078d565b50565b606061040d826107a0565b60405160200161041d919061167e565b6040516020818303038152906040529050919050565b610468336001806040518060400160405280601081526020016f436f6e67726174756c6174696f6e732160801b8152506108a9565b565b6001600160a01b03851633148061048657506104868533610275565b6104ed5760405162461bcd60e51b815260206004820152603260248201527f455243313135353a207472616e736665722063616c6c6572206973206e6f74206044820152711bdddb995c881b9bdc88185c1c1c9bdd995960721b606482015260840161034b565b6104fa85858585856109bd565b5050505050565b606081518351146105665760405162461bcd60e51b815260206004820152602960248201527f455243313135353a206163636f756e747320616e6420696473206c656e677468604482015268040dad2e6dac2e8c6d60bb1b606482015260840161034b565b6000835167ffffffffffffffff81111561058257610582611170565b6040519080825280602002602001820160405280156105ab578160200160208202803683370190505b50905060005b8451811015610623576105f68582815181106105cf576105cf611712565b60200260200101518583815181106105e9576105e9611712565b60200260200101516102e3565b82828151811061060857610608611712565b602090810291909101015261061c8161173e565b90506105b1565b509392505050565b6003546001600160a01b031633146106555760405162461bcd60e51b815260040161034b90611649565b6104686000610b9a565b61066a338383610bec565b5050565b6001600160a01b03851633148061068a575061068a8533610275565b6106e85760405162461bcd60e51b815260206004820152602960248201527f455243313135353a2063616c6c6572206973206e6f74206f776e6572206e6f7260448201526808185c1c1c9bdd995960ba1b606482015260840161034b565b6104fa8585858585610ccc565b6003546001600160a01b0316331461071f5760405162461bcd60e51b815260040161034b90611649565b6001600160a01b0381166107845760405162461bcd60e51b815260206004820152602660248201527f4f776e61626c653a206e6577206f776e657220697320746865207a65726f206160448201526564647265737360d01b606482015260840161034b565b6103ff81610b9a565b805161066a906002906020840190611057565b6060816000036107c75750506040805180820190915260018152600360fc1b602082015290565b8160005b81156107f157806107db8161173e565b91506107ea9050600a8361176d565b91506107cb565b60008167ffffffffffffffff81111561080c5761080c611170565b6040519080825280601f01601f191660200182016040528015610836576020820181803683370190505b5090505b84156108a15761084b600183611781565b9150610858600a86611798565b6108639060306117ac565b60f81b81838151811061087857610878611712565b60200101906001600160f81b031916908160001a90535061089a600a8661176d565b945061083a565b949350505050565b6001600160a01b0384166109095760405162461bcd60e51b815260206004820152602160248201527f455243313135353a206d696e7420746f20746865207a65726f206164647265736044820152607360f81b606482015260840161034b565b33600061091585610df6565b9050600061092285610df6565b90506000868152602081815260408083206001600160a01b038b168452909152812080548792906109549084906117ac565b909155505060408051878152602081018790526001600160a01b03808a1692600092918716917fc3d58168c5ae7397731d063d5bbf3d657854427343f4c083240f7aacaa2d0f62910160405180910390a46109b483600089898989610e41565b50505050505050565b8151835114610a1f5760405162461bcd60e51b815260206004820152602860248201527f455243313135353a2069647320616e6420616d6f756e7473206c656e677468206044820152670dad2e6dac2e8c6d60c31b606482015260840161034b565b6001600160a01b038416610a455760405162461bcd60e51b815260040161034b906117c4565b3360005b8451811015610b2c576000858281518110610a6657610a66611712565b602002602001015190506000858381518110610a8457610a84611712565b602090810291909101810151600084815280835260408082206001600160a01b038e168352909352919091205490915081811015610ad45760405162461bcd60e51b815260040161034b90611809565b6000838152602081815260408083206001600160a01b038e8116855292528083208585039055908b16825281208054849290610b119084906117ac565b9250508190555050505080610b259061173e565b9050610a49565b50846001600160a01b0316866001600160a01b0316826001600160a01b03167f4a39dc06d4c0dbc64b70af90fd698a233a518aa5d07e595d983b8c0526c8f7fb8787604051610b7c929190611853565b60405180910390a4610b92818787878787610f9c565b505050505050565b600380546001600160a01b038381166001600160a01b0319831681179093556040519116919082907f8be0079c531659141344cd1fd0a4f28419497f9722a3daafe3b4186f6b6457e090600090a35050565b816001600160a01b0316836001600160a01b031603610c5f5760405162461bcd60e51b815260206004820152602960248201527f455243313135353a2073657474696e6720617070726f76616c20737461747573604482015268103337b91039b2b63360b91b606482015260840161034b565b6001600160a01b03838116600081815260016020908152604080832094871680845294825291829020805460ff191686151590811790915591519182527f17307eab39ab6107e8899845ad3d59bd9653f200f220920489ca2b5937696c31910160405180910390a3505050565b6001600160a01b038416610cf25760405162461bcd60e51b815260040161034b906117c4565b336000610cfe85610df6565b90506000610d0b85610df6565b90506000868152602081815260408083206001600160a01b038c16845290915290205485811015610d4e5760405162461bcd60e51b815260040161034b90611809565b6000878152602081815260408083206001600160a01b038d8116855292528083208985039055908a16825281208054889290610d8b9084906117ac565b909155505060408051888152602081018890526001600160a01b03808b16928c821692918816917fc3d58168c5ae7397731d063d5bbf3d657854427343f4c083240f7aacaa2d0f62910160405180910390a4610deb848a8a8a8a8a610e41565b505050505050505050565b60408051600180825281830190925260609160009190602080830190803683370190505090508281600081518110610e3057610e30611712565b602090810291909101015292915050565b6001600160a01b0384163b15610b925760405163f23a6e6160e01b81526001600160a01b0385169063f23a6e6190610e859089908990889088908890600401611881565b6020604051808303816000875af1925050508015610ec0575060408051601f3d908101601f19168201909252610ebd918101906118c6565b60015b610f6c57610ecc6118e3565b806308c379a003610f055750610ee06118ff565b80610eeb5750610f07565b8060405162461bcd60e51b815260040161034b91906112cf565b505b60405162461bcd60e51b815260206004820152603460248201527f455243313135353a207472616e7366657220746f206e6f6e20455243313135356044820152732932b1b2b4bb32b91034b6b83632b6b2b73a32b960611b606482015260840161034b565b6001600160e01b0319811663f23a6e6160e01b146109b45760405162461bcd60e51b815260040161034b90611989565b6001600160a01b0384163b15610b925760405163bc197c8160e01b81526001600160a01b0385169063bc197c8190610fe090899089908890889088906004016119d1565b6020604051808303816000875af192505050801561101b575060408051601f3d908101601f19168201909252611018918101906118c6565b60015b61102757610ecc6118e3565b6001600160e01b0319811663bc197c8160e01b146109b45760405162461bcd60e51b815260040161034b90611989565b82805461106390611a2f565b90600052602060002090601f01602090048101928261108557600085556110cb565b82601f1061109e57805160ff19168380011785556110cb565b828001600101855582156110cb579182015b828111156110cb5782518255916020019190600101906110b0565b506110d79291506110db565b5090565b5b808211156110d757600081556001016110dc565b80356001600160a01b038116811461110757600080fd5b919050565b6000806040838503121561111f57600080fd5b611128836110f0565b946020939093013593505050565b6001600160e01b0319811681146103ff57600080fd5b60006020828403121561115e57600080fd5b813561116981611136565b9392505050565b634e487b7160e01b600052604160045260246000fd5b601f8201601f1916810167ffffffffffffffff811182821017156111ac576111ac611170565b6040525050565b600067ffffffffffffffff8311156111cd576111cd611170565b6040516111e4601f8501601f191660200182611186565b8091508381528484840111156111f957600080fd5b83836020830137600060208583010152509392505050565b60006020828403121561122357600080fd5b813567ffffffffffffffff81111561123a57600080fd5b8201601f8101841361124b57600080fd5b6108a1848235602084016111b3565b60006020828403121561126c57600080fd5b5035919050565b60005b8381101561128e578181015183820152602001611276565b8381111561129d576000848401525b50505050565b600081518084526112bb816020860160208601611273565b601f01601f19169290920160200192915050565b60208152600061116960208301846112a3565b600067ffffffffffffffff8211156112fc576112fc611170565b5060051b60200190565b600082601f83011261131757600080fd5b81356020611324826112e2565b6040516113318282611186565b83815260059390931b850182019282810191508684111561135157600080fd5b8286015b8481101561136c5780358352918301918301611355565b509695505050505050565b600082601f83011261138857600080fd5b611169838335602085016111b3565b600080600080600060a086880312156113af57600080fd5b6113b8866110f0565b94506113c6602087016110f0565b9350604086013567ffffffffffffffff808211156113e357600080fd5b6113ef89838a01611306565b9450606088013591508082111561140557600080fd5b61141189838a01611306565b9350608088013591508082111561142757600080fd5b5061143488828901611377565b9150509295509295909350565b6000806040838503121561145457600080fd5b823567ffffffffffffffff8082111561146c57600080fd5b818501915085601f83011261148057600080fd5b8135602061148d826112e2565b60405161149a8282611186565b83815260059390931b85018201928281019150898411156114ba57600080fd5b948201945b838610156114df576114d0866110f0565b825294820194908201906114bf565b965050860135925050808211156114f557600080fd5b5061150285828601611306565b9150509250929050565b600081518084526020808501945080840160005b8381101561153c57815187529582019590820190600101611520565b509495945050505050565b602081526000611169602083018461150c565b6000806040838503121561156d57600080fd5b611576836110f0565b91506020830135801515811461158b57600080fd5b809150509250929050565b600080604083850312156115a957600080fd5b6115b2836110f0565b91506115c0602084016110f0565b90509250929050565b600080600080600060a086880312156115e157600080fd5b6115ea866110f0565b94506115f8602087016110f0565b93506040860135925060608601359150608086013567ffffffffffffffff81111561162257600080fd5b61143488828901611377565b60006020828403121561164057600080fd5b611169826110f0565b6020808252818101527f4f776e61626c653a2063616c6c6572206973206e6f7420746865206f776e6572604082015260600190565b7f68747470733a2f2f697066732e696f2f697066732f626166796265696533647781527f3376626e34346f3637737a76347a6373786a3769777776667574776c647934616020820152707176766a6471686334796b326d6f67752f60781b6040820152600082516116f6816051850160208701611273565b64173539b7b760d91b6051939091019283015250605601919050565b634e487b7160e01b600052603260045260246000fd5b634e487b7160e01b600052601160045260246000fd5b60006001820161175057611750611728565b5060010190565b634e487b7160e01b600052601260045260246000fd5b60008261177c5761177c611757565b500490565b60008282101561179357611793611728565b500390565b6000826117a7576117a7611757565b500690565b600082198211156117bf576117bf611728565b500190565b60208082526025908201527f455243313135353a207472616e7366657220746f20746865207a65726f206164604082015264647265737360d81b606082015260800190565b6020808252602a908201527f455243313135353a20696e73756666696369656e742062616c616e636520666f60408201526939103a3930b739b332b960b11b606082015260800190565b604081526000611866604083018561150c565b8281036020840152611878818561150c565b95945050505050565b6001600160a01b03868116825285166020820152604081018490526060810183905260a0608082018190526000906118bb908301846112a3565b979650505050505050565b6000602082840312156118d857600080fd5b815161116981611136565b600060033d11156118fc5760046000803e5060005160e01c5b90565b600060443d101561190d5790565b6040516003193d81016004833e81513d67ffffffffffffffff816024840111818411171561193d57505050505090565b82850191508151818111156119555750505050505090565b843d870101602082850101111561196f5750505050505090565b61197e60208286010187611186565b509095945050505050565b60208082526028908201527f455243313135353a204552433131353552656365697665722072656a656374656040820152676420746f6b656e7360c01b606082015260800190565b6001600160a01b0386811682528516602082015260a0604082018190526000906119fd9083018661150c565b8281036060840152611a0f818661150c565b90508281036080840152611a2381856112a3565b98975050505050505050565b600181811c90821680611a4357607f821691505b602082108103611a6357634e487b7160e01b600052602260045260246000fd5b5091905056fea2646970667358221220afef03b1bafb53504fb3bc7e12f37c0004d79f5ed2531fc18f68c036827f7b8464736f6c634300080e003368747470733a2f2f697066732e696f2f697066732f2f62616679626569653364773376626e34346f3637737a76347a6373786a3769777776667574776c647934617176766a6471686334796b326d6f67752f7b69647d2e6a736f6e",
  "linkReferences": {},
  "deployedLinkReferences": {}
}